S01F000050726F6A6563745F5A425F526F757465725F5A6F6E655F312E73333798
S214000000C01A002025B60100ED320000F1320000D3
S214000010A70B0000000000000000FFFF54000000D7
S21400002004180F00000000000000000000000000A0
S21400003000000000000000000000000000000000BB
S2140000400000000000000000000000001002000099
S20800005000000000A7
S214000054C01A002025B60100ED320000F13200007F
S214000064A70A0A010002000004180FACC0671002B9
S2140000740000000000000000000000000000000077
S2140000840000000000000000000000000000000067
S2140000940000000000000000FFFFFFFFFFFFFFFF5F
S2140000A4FFFFFFFF006007000000000000000000E4
S2140000B4FFFFFFFFFFFFFFFF8000000000000000BF
S2140000C40000000000000000000000000000000027
S2140000D40000000000000000104B0020104B002021
S2140000E4C01A0020B4BA0300501D0300601100209B
S2100000F42C11002000E0070000000000B7
S214000200C01A002025B60100ED320000F1320000D1
S214000210A5890000F5320000FD32000023B601007B
S21400022023B6010023B6010023B6010023B6010061
S2140002300133000023B6010023B6010023B60100F7
S214000240743300007433000074330000743300000D
S21400025074330000D94E0000095C000074330000BF
S2140002607433000074330000DD4C00009DC00000B5
S21400027074330000743300007433000074330000DD
S21400028074330000743300007433000023B601009A
S21400029074330000354500007433000074330000EA
S2140002A074330000354600000D460000743300002D
S2140002B0743300007433000074330000F58F0100BF
S2140002C0818F01007D8F0100BD860100F18F010046
S2140002D0858F0100A58F0100898F010023B60100DC
S2140002E0399001007433000074330000D5350000E7
S2140002F074330000743300007433000023B601002A
S214000300743300007433000074330000743300004C
S214000310743300007433000074330000743300003C
S214000320743300007433000074330000743300002C
S208000330743300001D
S214000334F8B500BFF8BC08BC9E467047F8B500BFC9
S214000344F8BC08BC9E46704710B5054C237833B9F4
S214000354044B13B1044800E000BF0123237010BD12
S2140003649424002000000000D8B0030008B5034B16
S2140003741BB10349034800E000BF08BD00000000AD
S21400038498240020D8B00300154B002B08BF134B4D
S2140003949D46A3F5803A00218B460F461348144A1F
S2140003A4121A30F0BDFB0F4B002B00D098470E4BB3
S2140003B4002B00D098470020002104000D000D48B3
S2140003C4002802D00C4800E000BF30F06BFB200091
S2140003D429000CF061F830F051FB00BF0000080063
S2140003E4C01A002000000000000000009424002032
S2140003F4104B002000000000000000001FB5012381
S2140004040022009306210DF10F030EF09FFB20B986
S2140004149DF80F3023B102F0ADFF05B05DF804FB84
S21400042402F0A9FFF9E7000030B50024144D85B0AA
S2140004342C700CF03BFF022817D100900DF10E0330
S2140004442246032101200EF081FBBDF80E0048B1C0
S214000454204602F091FF4FF47A6128461FF03EFDD5
S21400046405B030BD02F086FFFAE709F0BDFA054B89
S2140004740090054A054901200FF038FEF0E700BF5A
S214000484BC3A0020824D0300501D0300551D030096
S21400049408B50CF00BFF02280CD10022064B0120F5
S2140004A41A7007F0CFFDBDE8084002460349012054
S2140004B40FF01CBE08BD00BFB43A00209A1D03000E
S2140004C413B5044600900A4B0A4A0B4901200FF064
S2140004D40DFE5CB12246094901200FF007FE009488
S2140004E4074B084A044901200FF000FE02B010BD75
S2140004F404860300501D0300551D0300691D0300F8
S214000504824D0300951D0300FFF778BF09B9FFF776
S21400051475BF70477047012070470120704701205F
S21400052470477047002070470020704700207047CF
S2140005340020704700207047002070470120704755
S21400054401207047B5207047002070470020704790
S214000554002070470020704770470020704770479F
S214000564002070477047002070478420704770470B
S21400057470477047012070470246024901200FF079
S214000584B5BD00BFBB1D0300704700207047704711
S214000594704770470020704700207047034B1B6865
S2140005A41878012808BF0220704700BFB033002027
S2140005B40020704703460120024AC3E903200022B4
S2140005C41A7070470100FEFF704700207047002035
S2140005D470470020704700207047002070470020B6
S2140005E470477047B520704700207047002070475A
S2140005F470470020704770477047B52070477047B3
S2140006047047002070477047704700000023FF21A2
S214000614084A137082F8783082F8653082F87730AA
S21400062482F8793082F87A1082F87B30024A1360B6
S214000634704700BFB0240020C43A0020F8B50D4629
S2140006448C680A6806462849202003F0FEFC6B687E
S2140006547BB92649202003F0F8FC20200BF002FB8F
S2140006642349202003F006FDBDE8F84020200BF0C7
S214000674F9BA002EF1D01F4D1F4E204F013C14F83E
S214000684013F23B91A49202003F0F4FCE5E7752B53
S21400069418D0762B18D0772B18D0732B18D0722B33
S2140006A418D0712B18D0622B18D06E2B18D02A2B8A
S2140006B418D01349134A212B18BF1146202003F0E3
S2140006C4C4FCDCE72946F9E73146F7E73946F5E79F
S2140006D40D49F3E70D49F1E70D49EFE70D49EDE75D
S2140006E40D49EBE70D49E9E7317F0300761E030069
S2140006F410260300341E0300281E03003F1E0300BA
S214000704801E03007D1E03004B1E0300551E0300BF
S214000714601E03006B1E0300751E03007A1E030092
S214000724F0B50026204A92F87B30184452FA80F03E
S21400073490F865C090F8665030461C4BA5EB0C0547
S2140007441F78EDB2F4B2A54225D90CEB0603134488
S2140007545B7811B10CB92D2B17D0782B1FD0582BE2
S21400076405D108B137240AE0013C012C14D9602BCA
S21400077417D8402BF6D83A2B34BF302400241B1B42
S214000784DBB29F4203D900FB07300136DAE70523C4
S214000794002082F87930F0BD10270020F5E7002805
S2140007A4E2D05724EBE700BFB0240020581C0020FA
S2140007B4FFF72CBF034B93F8770093F87B30C01AEF
S2140007C4C0B27047B02400200021FFF7A9BF000084
S2140007D410B50A4B93F87B20024453FA82F292F83F
S2140007E4652013445C78A4F12D0359425941FFF760
S2140007F497FF2D2C08BF404210BD00BFB024002038
S21400080430B50C4A92F87B300344C043DBB2C00FC9
S21400081439B1D51895F8664095F86550641B241AC6
S2140008240C7042FA83F393F865301844024B18446C
S21400083430BD00BFB0240020B1240020F7B5154613
S2140008440E460DF107011C46FFF7DAFF9DF8073048
S2140008540746AB4288BF8DF807501CB19DF8074089
S2140008642C1BE4B222463046002100F075FB3019FA
S2140008749DF80720394600F013FB9DF8070003B0E7
S214000884F0BD38B50C4601230822FFF7D7FF04F164
S2140008940803621E043413F8011D12F8015FA34214
S2140008A41D701170F7D138BD38B5054601460120D4
S2140008B4FFF7C4FED5E901436CB91C46084D23680E
S2140008C463B12946202003F0C0FB21460020FFF731
S2140008D4B5FE0C34F3E71B786E2BEFD038BD00BFA3
S2140008E43A83030008B50449202003F0AEFBBDE8B4
S2140008F4084020200BF0B6B9E81D030038B5FFF712
S214000904F1FF0024054D61190C34631953F80C3CAF
S21400091403B938BD0020FFF791FEF4E768420300F0
S2140009242DE9F84F1F4B204D53F820201F49202057
S21400093403F08BFB2B681BB9BDE8F84FFFF7DEBF4F
S2140009441B4FFFF7CFFF0026B946DFF86CA097F8D9
S2140009547B30F4B2013B9C4204DB2868BDE8F84FC8
S214000964FFF7A2BF47FA86F393F8658000234C444A
S214000974C84494F8662094F8651003F1010B521AE3
S214000984DBB2D2B2934205D30A49202003F05DFBC2
S2140009940136DCE743445A785146202003F055FBE1
S2140009A45B46E6E75C1C0020C43A0020E31D030017
S2140009B4B02400203B830300E08803002DE9F74FB2
S2140009C4884C94F87730002B00F0A180864B671C87
S2140009D41B7813F0010F1FD00025844E14E0631912
S2140009E493F8662093F865302020D21A44FA85F3EB
S2140009F493F86510D2B239440BF02FF93146202013
S214000A0403F023FB0135EDB294F87730AB42E6D819
S214000A147749202003F019FB002694F87730DFF896
S214000A24DCE10193734B4FF00008714645461EF80F
S214000A34012B91F801C007EB020AACEB020C5FFA3B
S214000A448CFC1868002852D00138D14619E02AB91F
S214000A54002D4AD04FF001080C33F2E719F8011BB9
S214000A64A1F1410BBBF1190F98BF2031A2F1410B44
S214000A7498BFC9B2BBF1190F9CBF2032D2B28A42CA
S214000A84EAD1A9EB0A01614510F8012FDFD1002A4B
S214000A94DED11D46584B01361D6094F87B30F6B205
S214000AA4013384F87B30D5E90123002A35D01B783E
S214000AB46E2B31D03F2B23D04FF000094FF0070B9D
S214000AC4C846042394F87710AA68B14212F808704E
S214000AD42BD8AFB1904498F801302A2B10D0212F90
S214000AE41CBF032384F879300AE01D46B4E7B8F146
S214000AF4000F01D1002DCDD10223002584F87930D2
S214000B0494F87900002869D168680EF00FFB03B0EA
S214000B14BDE8F04FFFF77ABD1346019AB24282D879
S214000B2403221D4684F87920EAE7732F09D8712F2B
S214000B340BD2212F1FD0622F3CD0002F4BD1032283
S214000B4446E0A7F17502022A45D8752F29D0762FDC
S214000B542AD0732F2BD0722F47F6FF7A18BF4FF088
S214000B64FF3A012148460193FFF7DAFD5045019B01
S214000B7401D984F87930AA68424452782A2A94F82B
S214000B8479201CBF08F101085FFA88F8002AB7D15B
S214000B94212F1FBF013609F10109F6B25FFA89F960
S214000BA490E74FF0FF0ADCE74FF6FF7AD9E74FF0FD
S214000BB47F0AD6E794F87B204A4454FA82F292F8E5
S214000BC4652022445278222AD5D07B2AD3D0052207
S214000BD484F87920CFE784F879B0CCE7FFF7A0FE55
S214000BE495E700BFB02400202C2500203B8303009B
S214000BF4251E030068420300C43A00201525002081
S214000C042DE9F34106460D464FF000085C4C5D4F57
S214000C1466B90DF1070128460BF01AF878B12628B4
S214000C2400F0A980012384F879304BE0002D00F011
S214000C34A28016F8013B013D8DF80730EDB23A78F4
S214000C449DF807300D2A3B7001D10A2BE0D00D2BFE
S214000C540CD0A3F10A025142514122788846042A54
S214000C64D6D8DFE802F0051D263C31000121F4E762
S214000C7421B1FFF7A3FE4FF00108C9E7202B63D08C
S214000C84222B07D10223237094F87820642A5DD19E
S214000C940623C8E77B2B01D10323F4E70123F2E7FD
S214000CA409B9202BF0D194F87730112B3FD10323C8
S214000CB4B9E7222BF7D00029E6D005234FF0010828
S214000CC484F8793004232370B8F1000FA0D094F888
S214000CD4790008B1FFF724FEFFF798FC98E77D2B10
S214000CE494F87A0003D1FF28DDD005239BE7602B18
S214000CF413D8402B13D8392B8CBF002230229A1AD3
S214000D04D2B20F2A10D8FF280BD0FF2302EB001212
S214000D148DF8072084F87A30B6E75722EFE73722B3
S214000D24EDE784F87A2073E7202BDED170E70133F1
S214000D34DBB294F8782084F87730234483F865206F
S214000D4400232370002994D1884661E72378012B79
S214000D5409D19DF80730A3F1410119299CBF20331E
S214000D64DBB28DF807309DF80710A31801325970CE
S214000D7484F878204CE7404602B0BDE8F08100BF16
S214000D84B02400202D25002049BA89B24840C0F37B
S214000D9403114140080380B24840C3B280EA4310BE
S214000DA470471BF02BBC70477047704770477047FE
S214000DB47047704770477047704770477047704772
S214000DC40020704770477047002070477047704790
S214000DD400207047002070477047012070470120AC
S214000DE47047704770477047704770477047704742
S214000DF42DE9F0470024204DDFF89C90DFF89CA0F6
S214000E045FFA84F840461EF027FEFF2806460CD1FB
S214000E1422461A49287803F02DF9287801340AF076
S214000E2421FF142CECD1BDE8F087154B47B213EA2A
S214000E34270338BF534659F824201249287803F06C
S214000E4419F9002FE9DA14B1B8F1030F08D10E4BE3
S214000E5416F0010F0D49287818BF194603F00AF951
S214000E640A2CDAD10A4B16F0010F0A49287818BF63
S214000E74194603F0FFF8D0E7292000209D1F030041
S214000E8410260300C51F0300601F0300761F03001F
S214000E94881F0300921F03000C1F030092810300A7
S214000EA48842F0B54FEA92031AD804460D469BB220
S214000EB49E00871904370434BC4205F104053AD170
S214000EC4C3EB8333314402EB8303013E304411FA0F
S214000ED483F3994220D011F8012B00F8012FF8E78C
S214000EE4541E204421440D4604469BB2A0EB8306C0
S214000EF4043E043CB442A5F104050ED16FF003048D
S214000F045C43C3EB833302EB830321449BB201347B
S214000F142044CB1A994209D1F0BD2F792771EF7876
S214000F24E770AF78A7706F786770E2E711F8012969
S214000F3400F8012DEEE715F804CC04F804CC15F8F7
S214000F4403CC04F803CC15F802CC04F802CC15F84C
S214000F5401CC04F801CCAEE70244904200D17047BD
S214000F6400F8011BF9E710B5013801390AB9104633
S214000F7406E010F8014F11F8013F9C4201D0E01A38
S214000F8410BD013A92B2F1E782B2074B4AB1000CA7
S214000F941A8008BF4FF6CE22044B14BF18801A805E
S214000FA470474BF6EF62F2E7281D00202A1D00204A
S214000FB4094B1888020448BF80F0620042001A8079
S214000FC4064A1388190444BF83F4805383F00B0342
S214000FD45900118058407047281D00202A1D002003
S214000FE40022034B1870034B1970034B1A7070479A
S214000FF43425002033250020352500202DE9F04F28
S214001004234E85B0337807468846002B3DD04FF6EE
S214001014FB73204D98422C7803D952211E4801F0C8
S21400102455FD1E4B4FF0000B9A4632785FFA8BF94B
S2140010344A45187811D9484402A9C0B2019327F04A
S214001044BFFA082241460DEB0200FFF78CFF0BF1B6
S214001054010B019B0028E8D14C462B78A34207D10C
S214001064631C3278DBB29A422B7004BF00232B70C9
S2140010749AF8003041461C44E4B2204627F0C8FBE8
S21400108418B93946204627F069FA05B0BDE8F08F4E
S2140010943325002035250020BA20030034250020FF
S2140010A4024B187800F07F00704700BF36250020FA
S2140010B4034B18780130C0B2187000F07F007047F8
S2140010C4362500201FB5030A8DF80E30032300933F
S2140010D403AB8DF80D0000F0BFF905B05DF804FB16
S2140010E41FB58DF80F100421030A8DF80E300091F9
S2140010F403AB8DF80D0000F0AFF905B05DF804FB06
S2140011042DE9F043994689B0BDF840509DF84460F7
S214001114074688460DF1090011460822BDF84C40E2
S214001124FFF7BEFE8DF81250012E4FEA15258DF8F6
S21400113411908DF813508DF8146017D0032E1CD11F
S214001144082212990DF11500FFF7AAFE9DF85030FB
S2140011548DF81D3016230093BDF8542002AB41468B
S214001164384600F079F909B0BDE8F0838DF81540EB
S214001174240A8DF816400F23EDE70120F3E71FB588
S2140011840C46194602238DF80D2000930A4603AB3D
S2140011940146204600F060F904B010BD70B586B074
S2140011A4044616460DF10D0008221D46FFF778FE8C
S2140011B40A232A460093342103AB20468DF8156093
S2140011C400F04AF906B070BD30B5002485B0ADF81D
S2140011D40A20021D92B2012A1D46ADF80840ADF859
S2140011E40610ADF8044003D94FF6FF72904207D1BB
S2140011F4064A2B46127801A925F024FB05B030BD1B
S214001204014601AA204625F0E3FBF7E72C1D002043
S2140012142DE9F74F9846FF2A16BF474B00241B6854
S2140012240E4618BF9C5C814618BF6408B8F1FF0FD1
S21400123416BF414B00271B6815461CBF13F80870E1
S2140012447F08FFF735FF4FEA19238DF800008DF865
S21400125403600621360A68468DF804608DF801900E
S2140012648DF802308DF805401FF0AEF9FF280646CB
S21400127404D11824204603B0BDE8F08F4FEA440B8F
S2140012840BF1070A0AEB4701C9B21FF051F900280F
S214001294EFD10446A3451BD10BF106013A4601F0F3
S2140012A4FE0130465FFA8AF41FF0FBF94FF0000A9D
S2140012B45FFA8AF5AF4223D83346BDF830200621BC
S2140012C44846FFF781FF044630461FF01FF8D1E773
S2140012D4214628461FF0E0F9A11D0246C9B2304651
S2140012E41FF0DFF9611CC9B228461FF0D5F9E11DCD
S2140012F40246C9B2304602341FF0D3F9E4B2C9E755
S2140013046D00EDB2294640461FF0C6F92146024656
S21400131430461FF0C6F9691CC9B240461FF0BCF936
S214001324611C0246C9B2304602341FF0BAF90AF10B
S214001334010AE4B2BCE700BFC81C00202DE9F04156
S21400134488B00F4602A906460CF080F800287CD028
S214001354FFF7AEFE8DF810001EF052FD8DF811005A
S2140013641EF04EFD000A8DF81200082239490DF1D0
S2140013741300FFF795FDBDF808300F218DF81C30DB
S2140013841B0A8DF81D309DF80D3004A88DF81B60DF
S2140013948DF81E301FF018F9FF28044657D04FF07A
S2140013A400089DF80D305FFA88F2934208F10108B0
S2140013B41DD801220DF10E0120461FF047F94FF00B
S2140013C400089DF80E305FFA88F2934208F101088F
S2140013D424D823463A4620210020FFF7F5FE05468A
S2140013E420461EF093FF284608B0BDE8F081002191
S2140013F430460CF057F805468DF807000DF1070146
S214001404012220461FF022F92D0A01220DF10701C0
S21400141420468DF807501FF019F9C2E7012130461F
S2140014240CF040F805468DF807000DF1070101227F
S21400143420461FF00BF92D0A01220DF10701204664
S2140014448DF807501FF002F9BBE7A325CBE7182554
S214001454C9E700BFB1490020F8B51C460E4617463A
S2140014640546FFF725FE9DF81810207020461FF04D
S214001474ABF8FF2804460BD003463A4628463146C6
S214001484FFF7A2FE054620461EF040FF2846F8BD9C
S2140014941825FBE7828810B5531C04899BB29C422E
S2140014A498BF0023C4889C4217BF04684FF0FF30DF
S2140014B4A154838018BF002010BDC288838810B54D
S2140014C493420BD00489531C9BB29C4298BF0023C2
S2140014D40468A25C0A70C380002010BD4FF0FF3081
S2140014E4FBE78288C088101A18BF012070470023C3
S2140014F4016043600281704710B504461F4901200D
S2140015040EF0F4FD032C26D003D83CB3012C2ED0C9
S21400151410BD912C0ED0922C1DD0902CF8D11849C9
S21400152401200EF0E3FD0122164B9A711A6000F0BA
S21400153431FE09E0144901200EF0D8FD00F02AFE21
S2140015440122104B9A711A604FF47A71BDE810406C
S2140015540E481EF0C3BC0B4B0222F4E7094B9A79E3
S214001564002AD5D0032240F6B8311A60EEE70222EC
S214001574BDE81040034B1A6000F00CBE4E27030073
S2140015847D270300283B00206A270300F83A002042
S21400159470B505460024064EAB89A34200D870BD3C
S2140015A4AB683046195DFFF775FF0134F4E700BFFA
S2140015B4A42700201FB50020022204AB03F8040D64
S2140015C448F2340100924FF48A52FFF745FF1AF0AE
S2140015D4FDFB074901200EF089FD1EF011FC802159
S2140015E421F060FD21F09EFC05B05DF804FB00BF11
S2140015F40E270300002208B5084B1A700BF056FE9F
S2140016040749024601200EF071FDFFF7D3FFBDE83F
S214001614084041F2883103481EF060BC083B0020B5
S214001624F8250300303B002070B5334901200EF046
S2140016345DFD324800F070FD4FF496723049314833
S214001644FFF755FF0021084600F098FF002103200D
S21400165400F094FF0121032000F090FF02210320F4
S21400166400F08CFF0121022000F088FF02210846CA
S21400167400F084FF0021084600F08DFF00210320BF
S21400168400F089FF0121032000F085FF02210320DA
S21400169400F081FF0121022000F07DFF02210846B0
S2140016A400F079FF00F070FE00F026FF164800F008
S2140016B481FC16481EF006FC0023154A154E1370CE
S2140016C41548164A164C174D41F28831337003708C
S2140016D423702B7013701EF001FC30464FF4FA6131
S2140016E41EF0FCFB284640F6B8311EF0F7FB2046F9
S2140016F4BDE870401EF0E6BB3627030095150000D3
S21400170437250020A4270020FD140000F83A002006
S214001714303B0020103B0020183B0020003B0020FC
S214001724203B0020083B0020F0B507289DF81460F5
S214001734069D9DF81C70089C38D101291CD1D843FD
S21400174486F00101514041402846C9B2A0EB050C81
S21400175467450CD8B12020700620A3700123607062
S214001764E27023712B78A6716371E171F0BD10F8F5
S21400177401CB8CEA0101E9E70029F7D1D84386F0CA
S2140017840201514041402846C9B2A0EB050C67450A
S21400179407D8B12020700620A3706070E270022380
S2140017A4DFE710F801CB8CEA0101EEE7F0B9D84385
S2140017B486F00101514041402846C9B2A0EB050C11
S2140017C467450ED8B120A370207001230720E2706D
S2140017D4607023712B7863716B78E671A371217244
S2140017E4C4E710F801CB8CEA0101E7E701280FD122
S2140017F4D84386F00101514041402846C9B2A0EBC7
S214001804050C6745DED910F801CB8CEA0101F6E732
S21400181402280FD1D84386F00101514041402846A2
S214001824C9B2A0EB050C6745CCD910F801CB8CEAFD
S2140018340101F6E703280FD1D84386F00101514091
S21400184441402846C9B2A0EB050C6745BAD910F842
S21400185401CB8CEA0101F6E704280FD1D84386F0C1
S2140018640101514041402846C9B2A0EB050C67452A
S214001874A8D910F801CB8CEA0101F6E705280FD1A8
S214001884D84386F00101514041402846C9B2A0EB36
S214001894050C674596D910F801CB8CEA0101F6E7EA
S2140018A406287FF463AFD84386F0010151404140D7
S2140018B42846C9B2A0EB050C674583D910F801CBBE
S2140018C48CEA0101F6E70000F0B500240F46164640
S2140018D41A4B1B4D87B01B780246294603A88DF881
S2140018E404308DF80830CDE90344ADF81440ADF863
S2140018F40540ADF809402FF01BF99DF80C303A4628
S2140019048DF804309DF80D3029468DF805309DF885
S2140019140E3001A88DF808309DF80F308DF806407B
S2140019248DF809308DF80A402FF022F93246294600
S21400193402A82FF01DF907B0F0BD00BFF52503007F
S2140019448489030001283ED0022852D0032840D0C0
S214001954042848D0052867D006283ED007285DD03E
S214001964082830D101291CD002292AD008205FE09B
S21400197402280CD003280CD004280CD005280CD040
S21400198406280CD007280CBF1D201E2070471820E0
S2140019947047192070471A2070471B2070471C2078
S2140019A470470920704707207047052070470320BA
S2140019B4704708207047062070470E207047112095
S2140019C4704714207047012936D002293AD10D20D9
S2140019D47047012932D1042070470129E3D0022937
S2140019E426D1122070470129DFD0022920D11020E9
S2140019F470470129DBD00229DFD00329B8D002289A
S214001A04D5D00328E7D00428CFD00528D3D006287D
S214001A14C9D007280CBF0820092070470129C8D060
S214001A24022905D1132070470129C4D00229C6D043
S214001A3403299DD00128E2D1022070470229DCD177
S214001A440F207047032914BF022017207047000098
S214001A541FB500201E4B18701E4B1A681C46012A20
S214001A640BD0032A0ED032B90BF020FC08B900F0D4
S214001A74E5FA0223236004B010BD02221A6000F0C7
S214001A8489FBF8E702221A6004AB03F8040D48F257
S214001A94340100924FF48A52FFF7DEFC0BF006FC8A
S214001AA404461AF093F9022C01D0902C0AD10A4964
S214001AB401200EF01BFB1EF0A3F9002121F0F2FA20
S214001AC421F030FA41F2883104481EF007FAD2E7D2
S214001AD4F83A0020283B00200E270300003B002095
S214001AE410B50BF0E3FB0023074C237040B900F05D
S214001AF4A5FA2046BDE8104041F288311EF0EEB942
S214001B04024A137010BD00BF303B0020083B002083
S214001B1408B501F0EBFE0022014B1A7008BD00BFA9
S214001B24003B00202DE9F047654F88B0BB7B0025BD
S214001B348DF81030FB7B4FF002098DF8113001232D
S214001B4405AE0DF11008DFF87CA1756035811A46E4
S214001B54194618460396CDF80890CDE900588DF836
S214001B64125005958AF80050FFF7DEFD072233462B
S214001B741146284600F060FBBB7A2A468DF81030E2
S214001B84FB7A28468DF811300123CDE902961946D2
S214001B94CDE90058FFF7C8FD08223346114628460B
S214001BA400F04AFB01213B78084601248DF81030EA
S214001BB4FFF7C8FE2346024621460396CDE9018474
S214001BC400950720FFF7B0FD2246334621462846F7
S214001BD400F032FB7B78214648468DF81030FFF73C
S214001BE4B1FE23460246CDE90246CDE90058072059
S214001BF4FFF79AFD4A4633464946284600F01CFB42
S214001C04BB78214603208DF81030FFF79BFE234651
S214001C140246CDE90246CDE900580720FFF784FDC9
S214001C24032233461146284600F006FBFB7821467D
S214001C3404208DF81030FFF785FE23460246CDE9D2
S214001C440246CDE900580720FFF76EFD042233460E
S214001C541146284600F0F0FA3B79214605208DF817
S214001C641030FFF76FFE23460246CDE90246CDE963
S214001C7400580720FFF758FD05223346114628462C
S214001C8400F0DAFA7B79214606208DF81030FFF74B
S214001C9459FE23460246CDE90246CDE90058072000
S214001CA4FFF742FD062233461146284600F0C4FAE2
S214001CB441F2883150461EF011F908B0BDE8F087AD
S214001CC492270020183B00200023D0B5104C237028
S214001CD400F024FC57EC106B00F068FB51EC100B82
S214001CE42EF0D2FC0B4A80B2511EFFF7EDFD3946AA
S214001CF430462EF0C9FC084A80B2511EFFF7E4FDB8
S214001D042046BDE8D0404FF4FA611EF0E7B800BFA5
S214001D14103B0020A12700209D27002038B5564CF4
S214001D246378012B1BD10378092B00F29F80DFE830
S214001D3403F0051729394F5D6C7C8B9423794F4D3E
S214001D446179AB72E9729CB219B104EB840401EBBD
S214001D54440422464A4901200EF0C8F92C8138BDB5
S214001D642379464D6179AB73E9739CB219B104EBE0
S214001D74840401EB44042246424901200EF0B6F9DD
S214001D84AC81ECE74049227901200EF0AFF92179C5
S214001D943A4B197009B908460EE00129DFD1002133
S214001DA4084611E03949227901200EF09FF921797D
S214001DB4324B597021B90320BDE8384000F0EBBB24
S214001DC40129CCD100210320BDE8384000F0F9BB3E
S214001DD42F49227901200EF089F92179274B997031
S214001DE409B90121E7E70129B9D1ECE722792949A4
S214001DF401200EF07BF92379204AD3700BB9022117
S214001E04D9E7012BABD10221DDE723492279012052
S214001E140EF06CF92179194B197111B901210220C0
S214001E24D2E701299BD10220C6E722791B4901206B
S214001E340EF05CF92379114A53710BB90221AFE70E
S214001E44012B8CD10221A6E72279154901200EF038
S214001E544DF92279094B9A7181E7227911490120BB
S214001E640EF044F92279054BDA7178E70E49012021
S214001E74BDE838400EF03AB96526002092270020C7
S214001E84112603001F2603002F26030049260300FD
S214001E94632603007D26030097260300B12603006D
S214001EA4CB260300E5260300FF2603000123F7B52F
S214001EB40024284D284E294F2B703046FFF711FB7F
S214001EC400B114B1204603B0F0BD0DF10701304651
S214001ED4FFF7F3FA2B78022B15D0062B2DD0012B07
S214001EE434D19DF80730B12B06D1FF221C4B3C7031
S214001EF41A7002232B70E0E7062B29D0152B14BF8B
S214001F0405240424D9E73B78FD2B12D89DF8072036
S214001F141449CA542BB1124890F800C082EA0C0245
S214001F24027001330A78DBB29A423B70C5D10623AD
S214001F34E0E7012305242B70BFE7094B9DF8074013
S214001F441B789C4214BF05240724B6E70123D1E777
S214001F540324B2E72D1D0020A427002064260020B9
S214001F64632600206526002008B5FFF79FFF30B1E2
S214001F74072804D1BDE808400148FFF7CFBE08BDD6
S214001F8467260020002310B5044C2370FFF7ECFFEF
S214001F942046BDE810401DF095BF00BF203B002042
S214001FA4704708B5002107F0F3FDBDE8084001209E
S214001FB41AF002BB08B1024B18600248FFF7F1BFE3
S214001FC4B027002000C8180310B504460F490120A6
S214001FD40EF08CF8902C0BD10D4A0E4B92881B6891
S214001FE41AB163B12046984709E043B19120FAE755
S214001FF40BF05CF928B9074B1B68002BF3D10020C3
S21400200410BD0328FBD1034B1B68ECE74E270300E7
S214002014283B0020B0270020002208B5054B1A7084
S2140020240BF044F928B907F0DFFC034A9388013320
S214002034938008BD403B0020283B002008B50BF0E9
S21400204435F930B9BDE808404FF4FA6101481DF08F
S21400205445BF08BD403B00201FB500220120054BAC
S21400206406211A7000900DF10F030CF06FFD05B0F9
S2140020745DF804FB383B00200B4611B1012907D05C
S2140020847047012816BF0120044905490EF02EB8F2
S21400209401280EBF034904491846F7E797270300AB
S2140020A4B9270300DB270300FC27030070B5036889
S2140020B404465D790379C67C022B07D10A490120C0
S2140020C40EF014F831462846FFF7D6FF237953B9A5
S2140020D42A46064901200EF009F831462846BDE88E
S2140020E47040FFF7C9BF70BD1D28030037280300E2
S2140020F410B50446074901200DF0F8FFA37B33B161
S21400210423685B88062B02D12046FFF7CFFF00200A
S21400211410BD00BF6128030008B1014B186070476A
S214002124B427002008B5024B1B689847002008BD5A
S214002134B4270020F0B5174600220646ADF5017D0B
S2140021449DF818528DF80D208DF80E209DF81C224F
S2140021548DF80C108DF80F2019462A4603AC04A8F7
S21400216404352EF0D2FCCDE90045044B3A46314600
S21400217410200CF04DFF0DF5017DF0BD7A4C0300E8
S21400218410B514460CF0CAFF2146BDE810400020E6
S2140021940CF0A2BF70B58AB006AC2646244A02F1FB
S2140021A40803254610685168083203C59A422C462F
S2140021B4F7D10124106813791E4A28602B71106821
S2140021C4137904908DF814308DF80F400BF06EF8E8
S2140021D402282BD10D2342252246CDE900350521C0
S2140021E433460020FFF7A6FF002221462046FFF7CD
S2140021F4C7FF052322460093042104AB0020019563
S214002204FFF798FF002221462046FFF7B9FF102368
S2140022142246CDE90043214600200DF10F03FFF7C7
S21400222489FF002221462046FFF7AAFF0AB070BDA8
S2140022348428030091280300F7B506460C46154685
S2140022441F460BF033F8022811D10A232022052159
S214002254CDE9003200203B460122FFF76BFF3246F1
S2140022642946204603B0BDE8F040FFF789BF03B017
S214002274F0BD70477FB51D4D2B78012B34D06C46CE
S2140022841B4B1C4E0FCB84E80F000821042003F0E0
S2140022948BFF01230B220321002004F019FA0123EB
S2140022A40B220421002004F013FA134B1348D3F82E
S2140022B4A014014041F48021C3F8A014D3F89C2450
S2140022C42146024042F44032C3F89C24032230469E
S2140022D4C3F8982404F084FA10230121B36030462E
S2140022E404F074FA01232B7004B070BDB8270020E4
S2140022F4982803000000014A00C00340FCFFF0FFDA
S21400230410B588B08DF807100421ADF80E100DF145
S214002314070104910121ADF80C00ADF8141008482B
S21400232403A90692ADF81C3004F088FB044C01287F
S21400233401D008B010BD204604F074FAF7E700BFD9
S2140023440000014A10B588B08DF807100821ADF8D2
S2140023540E100DF1070104910121ADF80C00ADF843
S2140023641410084803A90692ADF81C3004F066FB66
S214002374044C012801D008B010BD204604F052FADF
S214002384F7E700BF0000014A08B5FFF772FFFFF742
S21400239471FFBDE80840F0EE000A9FED031AB0EEA8
S2140023A4600A00F035B800BF0AD7233C002313B5F3
S2140023B402AC24F8043D2246022310214620FFF7EF
S2140023C4C1FF19F0EAF9C828FBD922461021462095
S2140023D40223FFF795FFBDF804305BBA9BB200EE0C
S2140023E4103AB8EE400A00F023F8BCEEC00A10EE2D
S2140023F4103A98B22DF0BCFE4FF03332034B2EF059
S2140024045BF841EC100B02B010BD00BF3333F33F52
S214002414044B83ED000A044BC3ED000A034B83ED23
S214002424001A7047C0270020BC270020CC270020B5
S2140024342DE9F8432A4D2B4B2DED048BD3ED007A72
S214002444D5ED008A78EEA77A274C88EEA79AD4EDC5
S214002454007A30EE670AB0EE678AA9EE008A77EE55
S214002464C87AF0EEE77A214B17EE900A83ED009ACD
S2140024742DF0A0FE1E4B064618680F462DF09AFE59
S21400248402460B46304639462DF0ECFE064619EE5B
S214002494100A0F462DF08EFE02460B460020154904
S2140024A42DF028FD804618EE900A89462DF082FE0F
S2140024B402460B46404649462DF0D4FE02460B46DD
S2140024C4304639462DF018FD2EF0FEF8B0EE480AD8
S2140024D484ED008ABDEC048B2860BDE8F88300BF59
S2140024E4BC270020C0270020C8270020C4270020BF
S2140024F4CC2700200000F03F08B5FFF7BAFEFFF730
S214002504B9FEBDE80840F0EE000A9FED031AB0EEEF
S214002514600AFFF77DBF00BF0AD7233C13B500212E
S21400252402AC24F8041D022322469020FFF70AFF7B
S21400253419F033F9C828FBD922460021902002233B
S214002544FFF7DEFEBDF804305BBA9BB200EE103A2D
S214002554B8EE400AFFF76CFFBCEEC00A10EE103A65
S21400256498B22DF005FE0022034B2DF07BFE41ECC5
S214002574100B02B010BD00BF0000703F38B1012838
S21400258405D0022803D003280CBF03200020002314
S214002594042204F09DB838B1012805D0022803D0DF
S2140025A403280CBF03200020012303FA01F1302383
S2140025B4584341F2100300F1804000F57030C150DA
S2140025C4704738B1012805D0022803D003280CBF71
S2140025D403200020012303FA01F13023584342F27A
S2140025E4100300F1804000F57030C150704700239E
S2140025F407B5CDE90033012369464FF0FF308DF867
S214002604023011F09FFB003018BF012003B05DF8C4
S21400261404FB01207047012070470120704700002A
S21400262410B50A4C0A494FF481700DF05FFD23681B
S2140026341B6858790BF0FDFE23681B685879FDF774
S21400264497FF00200FF0ECF9012010BD0C48002085
S214002654A82803002DE9F84F80460D4614469946EF
S214002664164E06F1010A0DB9BDE8F88F102D4FF08D
S2140026740D02494650462F4628BF1027FEF710FC89
S2140026840123337000230D48F473B37326F058F90E
S214002694424601340A495FFA87FBE4B212F8013B6A
S2140026A411F8010F434002F8013CA2EB0803DBB229
S2140026B45B45F3D3ED1BADB29046D4E7D427002098
S2140026C4D32700202DE9F04F4FF00209364D85B090
S2140026D403930F9B174601900D220E460146681C75
S2140026E4BDF838800293FEF7DBFB49234C46AA4626
S2140026F42B7028464FEA1823AB7385F80F8026F014
S2140027041FF92B7883EA17232B706B787B406B704A
S2140027144FF0000B21E0C4F1100CA7EB0B031FFADB
S2140027248CFC9BB2634528BF63463046A11B00EB76
S214002734010C5FFA8CF2A0EB060C1FFA8CFC9C458D
S2140027441BD31C44E4B29B44102C1E441FFA8BFB80
S21400275403D1284626F0F4F80024BB45DBD314B195
S214002764504626F0EDF8B9F1010F4FF00004039E31
S21400277447460BD04FF00109CAE710F801CB1AF808
S21400278402E08CEA0E0C0AF802C0D0E70298042293
S2140027940549FEF785FB22460421019B029805B0F5
S2140027A4BDE8F04FFFF756BFD4270020F7B5099FC2
S2140027B4BDF820400646CDE900471D46FFF782FFD8
S2140027C42CB13346012221462846FFF743FF00205A
S2140027D403B0F0BD2DE9F7431E46054688469146EC
S2140027E4BDF828700D4C0346394630460122FFF7E3
S2140027F431FF33464A4641462846CDE90074FFF782
S21400280461FF042221460B98FEF7ADFB002814BF97
S2140028147E20002003B0BDE8F08300BFD027002050
S2140028242DE9F3410C4615461E468046084F991876
S214002834214438460422FEF733FBCDE900676319CA
S2140028442A4621464046FFF7C5FF02B0BDE8F081A0
S214002854E427002000207047002070477047704728
S214002864F7B50024094E0A4F0A4D56F8243003B92A
S2140028743B6835F8142008490092012022460134AA
S2140028840DF034FC292CF0D103B0F0BD301D00202F
S214002894D81D0020BC3B0020CB28030008B5FFF75A
S2140028A4DFFFBDE8084000F0F1B8000007B50020DF
S2140028B4FDF78AFFC2B2282A0DD8084B53F82230F7
S2140028C40BB9074B1B680749012031F81210009119
S2140028D405490DF00BFC03B05DF804FB301D002029
S2140028E4D81D0020BC3B0020CB280300FFF7B8BF50
S2140028F47047000038B50020FDF766FF0446012047
S214002904FDF762FF0546054901200DF0EFFBA9B26D
S214002914E0B2BDE8384000F0D1B800BFD6280300C6
S214002924F7B50024094E0A4F0A4D56F8243003B969
S2140029343B6835F8142008490092012022460134E9
S2140029440DF0D4FB292CF0D103B0F0BD301D0020CF
S214002954D81D00206A3B0020CB28030073B502ABC9
S21400296403E906000446019D1CF06EFF0646204659
S2140029741CF078FF9DF800008EB1202C0FD82B7821
S214002984012B37D84FF6FF75394903EB431323441D
S21400299431F81320AA4202D0013221F813204FF650
S2140029A4FF72344B344933F8146031F814509642AD
S2140029B41CBF721C23F8142004F0FD02092A31D12E
S2140029C49A8A898A02448A42B4BF9A82998233F8E0
S2140029D41430AB4204D3AE4202D22046FDF7C9FD02
S2140029E40025264BEA5CA24228D00135112DF9D1E8
S2140029F402B070BD022BD2D14FF6FF714FF6FF75B1
S214002A041B4B33F814208A421CBF013223F81420CF
S214002A1404F1210233F81210A9421CBF013123F835
S214002A241210BCE71D2CD2D15A8F1118A942BDBF73
S214002A3402F1FF3212185A875D87C8E719F097FA31
S214002A440F4B04461B78834203D8DD210D4800F063
S214002A543DF84FF6FF710C4A04EB04142C4432F88C
S214002A6414308B42C4D0013322F81430C0E700BFC0
S214002A740E3C0020BC3B00206A3B0020422C030096
S214002A84111D0020BE2B0300483B002052220021CB
S214002A940148FEF761BA00BFBC3B00205222FF216A
S214002AA40148FEF759BA00BF6A3B002008B5FFF795
S214002AB4EDFFBDE80840FFF7F1BF0000014B23F827
S214002AC4101070476A3B002042DE704738B5044653
S214002AD40D4600F0AFFD03F010FD2946204610F029
S214002AE446FE2B4622460549012009F0C1F8294630
S214002AF42046BDE83840FFF7E7BF00BF532C03006D
S214002B046D4B2DE9F0415A686C4CA2655A6AE26531
S214002B146B4AD2F800122166D2F8042262669A6AD8
S214002B24A266DA6AE2661A6B22675A6B6267A26B5F
S214002B34DB6B12F0040FA367D4E90F5318BF1D46CE
S214002B4418F00AFE002285420346606522655DD3BE
S214002B545C4A95425AD8AA696264E969A164B4F8E1
S214002B645810C1F30801062954D157498A4251D353
S214002B7456498A424ED211884DF64262914249D154
S214002B8440F201706268C4F89420A268C4F89820E1
S214002B944F4A5049934238BF13460A468B423CD3A9
S214002BA4D31AE3640023C4E91F33C4E92133C4E918
S214002BB42333484E444FDFF814C1AE4233D8D4E929
S214002BC41FC7D4E92165D4E923124FF0000E013B58
S214002BD4DBB2FF2B42D1BEF1000F05D0C4E91FC7FC
S214002BE4C4E92165C4E92312B4F85830C3F30803D2
S214002BF4052B57D03CD8032B47D0042B58D040F68F
S214002C040722013B4B2B98BF104640E000221D468E
S214002C14C4E911224FF42060BAE71E68B6F1CD3F2E
S214002C24BED10433BAE756F8042DBA42C5D362457A
S214002C34C3D2D107C1D5002104EB010EDEF87CE037
S214002C449645BAD004311829F6D10BB9052301E00C
S214002C54013BDBB204EB8301CA67AEE7E0464FF004
S214002C64010EBC4637462E460D4611464246AEE792
S214002C740C2B1AD03B2B0CD0062BC0D140F60423C9
S214002C84B0F5206F08BF184601E040F60120BDE805
S214002C94F081114B9B6913F0020F40F2025318BFE8
S214002CA41846F4E740F60320F1E740F60520EEE781
S214002CB440F60220EBE700BF00ED00E00000002035
S214002CC400E100E0A01A00204C030000501D0300A1
S214002CD49C000020C01A00200080014A042804D06A
S214002CE403280CBF01200220704700207047000014
S214002CF44FF480732DE9F04385B0ADF80C30002412
S214002D0401F066FC0127DFF84480DFF8449003AB4B
S214002D14E35C012218F8336008EBC3035D683046B1
S214002D240023294603F0D4FC4946E8B201F05EFCD1
S214002D34CDE9007701232A462946304603F082FC73
S214002D4414B105B0BDE8F0830124E0E7682C030065
S214002D54D92D000008B5FFF7C1FF022816BF024BA5
S214002D640020185C08BD00BFE827002008B5FFF760
S214002D74B5FF02281CBF014B195408BDE8270020E4
S214002D8408B5FFF7ABFF022805D0034A135CB3FA75
S214002D9483F35B09135408BDE827002008B5FFF742
S214002DA49DFF02280FD03021084A12F8303002EB7B
S214002DB4C0025943064B50685B5823FA00F0C043E0
S214002DC400F0010008BD0020FCE700BF682C0300EB
S214002DD414C0034070B504460026FFF7DFFF05461F
S214002DE401E000261D462046FFF7D8FFA84203460A
S214002DF4F7D10136052EF2D12046FFF7ABFFA842E5
S214002E040BD029462046FFF7B1FF2046FFF7A2FF66
S214002E14014620460AF094F970BD2046FFF7B0FF3D
S214002E242046FFF797FF014620460AF089F9204618
S214002E34FFF7A6FFE9E7000010B503F035FF0446E8
S214002E4403F02AFF0022012101FA02F3234014D0E2
S214002E541B4B33F812301B4A062B13D040F20721C3
S214002E648B420DD1184919480C68844208D14CF29B
S214002E743C334B800B88138012E00132102AE3D1D6
S214002E84104AF8E74FF20F010F4B5888884214D1C6
S214002E941988B1F5406F10D211804CF23C325A803A
S214002EA4084B1A8840F201739A4201BF084B094A3C
S214002EB4D2E90001C3E9000110BD4FF4C061EBE79D
S214002EC4782C0300F42700200000002007020FF0EF
S214002ED4EC27002094000020014B1888000A704755
S214002EE4F4270020014B1888704700BFF427002001
S214002EF42DE9F04F4D4C0546A36BD4F850B05A0755
S214002F0447BF0027B846D4F84CB0D4F85480D4F859
S214002F1440A05DBF464FD4F83CA0DFF83C91DFF8F4
S214002F243C9113F0080F434B434A18BF1A46B7EBBD
S214002F3408061FBF6421730801FB0B33B3FBF6F3CB
S214002F4487B01CBF9BB205933C494B46CDE9017A3A
S214002F54CDF8008008BF059601F08CF8B3B2CDE931
S214002F6400931FFA8BF2059B3549284601F082F838
S214002F74A36B5B070AD49C3E5E4507D1626D314B5A
S214002F849A4203D23049284601F074F8BA4501D86B
S214002F94C24504D24A462D49284601F06BF8284615
S214002FA408F060FE236E0BB9636EBBB3284928464F
S214002FB401F04BF800260127DFF8A480DFF8A49080
S214002FC4226E07FA06F3134207D058F82620137821
S214002FD41BB14946284601F038F80136202EEFD1B9
S214002FE400260127DFF87880DFF87890626E07FA0B
S214002FF406F3134209D008EB8603D3F8802013782F
S2140030041BB14946284601F020F801361D2EEDD1A5
S214003014284607B0BDE8F04F01F026B828460D490B
S21400302407B0BDE8F04F01F025B800BF000000204F
S214003034C01A00207F2F030062270300862F030098
S214003044B42F03009C000020ED2F0300193003006A
S21400305437300300663003007A2F0300F162030062
S2140030647C300300307F03002DE9F8430446FFF765
S21400307439FF40F60123984239D010D840F2025363
S21400308498421DD040F20173984224D040F2015376
S214003094984213D16549204600F0ECFF22E040F642
S2140030A4032398426CD03DD340F60423984200F0A4
S2140030B49C8040F60523984200F0B580BDE8F8836E
S2140030C45B49204600F0D6FF5A4B5B495A6C2046B3
S2140030D400F0D0FF06E0574A5849D2E92523204697
S2140030E400F0C8FF2046BDE8F84308F0BBBD514DCC
S2140030F45349204600F0BEFF95F86C309F0703D571
S2140031045049204600F0B6FF95F86F305E0603D5AA
S2140031144D49204600F0AEFF95F96F30002BE1DAFA
S2140031244A49B8E7434D4A49204600F0A3FF95F8BC
S2140031346830980704D06A6C3F49204600F09AFF2E
S21400314495F96830002B04DA6A6F4249204600F08D
S21400315491FF00260127DFF80881DFF81491AA6E94
S21400316407FA06F3134207D058F8262013781BB143
S2140031744946204600F07EFF0136082EEFD1B1E71F
S2140031842C4D3549204600F075FF2B496A6C2046C5
S21400319400F070FF95F86930590703D52F4920468B
S2140031A400F068FF95F96930002B04DA6A6F294944
S2140031B4204600F05FFF0826294FDFF8B480AB6E88
S2140031C4F340DA0707D557F8262013781BB1414693
S2140031D4204600F04FFF0136102EF0D195F86830E7
S2140031E4002B7FF47FAF1F4955E7124D1E4920463A
S2140031F400F040FF6A6C1049204600F03BFF1026A2
S214003204174FDFF86C80AB6EF340DB0707D557F833
S214003214262013781BB14146204600F02BFF0136CA
S2140032241A2EF0D15EE711494BE700BF092D0300C3
S214003234462D030000000020762D03008F2D03008A
S214003244A92D0300C12D0300FB2D03002E2E030021
S2140032546A2E03008F2E0300B32E0300CA2E03002B
S214003264982C0300102F0300402F0300592F03004F
S214003274AB2E03002DE9F84F06460025154C164FD5
S214003284DFF85C80DFF85CA023785FFA85FB0BB977
S214003294BDE8F88F57F8043B22461049304600F044
S2140032A4D4FE227804F1010982B9627882B10BF067
S2140032B4030103290CBF41465146304600F0C5FEC3
S2140032C4304608F0CFFC01354C46DDE74C46E8E7CF
S2140032D44146F2E77031030004000020002D03008D
S2140032E4251E0300785F030000F00CB800F00AB84F
S2140032F400F008B800F006B800F004B800F002B811
S21400330400F000B872B61EF0080F09D01EF0040FC5
S2140033140DD0DFF850E0AEE8FF1F6FF002000CE0BF
S214003324DFF840E0AEE8FF1F6FF00E0005E0DFF8C0
S21400333434E0AEE8FF1F6FF006006946EFF309823B
S2140033448EE8070086460848084C854501D3A545FF
S21400335401D384F30888FFF7D3FB84F3088818F0B6
S214003364D7F9000004000020A0110020C01A002095
S214003374FFF7C6BF704770477047704700F07E631C
S214003384B3F17E6F70B505460E46144616D105F0A9
S2140033946BFF18B19A210D48FFF798FB2246314679
S2140033A4C5F30B0003F03CFD044605F069FF5CB171
S2140033B49D21BDE870400548FFF788BB520818F009
S2140033C445F908B18F21F4E770BD00BF94380300B7
S2140033D437B57F2A14BF154600254BF23462914256
S2140033E4044619D17F2241F2020168460823FFF7FA
S2140033F4EFFF082225496846FDF7B5FD30B90823D6
S2140034047F2241F2F0116846FFF7E2FF0822694680
S2140034142046FDF745FD09E041F2F01291421AD12B
S2140034241B4901388A6CC96C1D1F0BB903B030BD2B
S214003434013B9D4200F8012F4FEA1222F5D10022EB
S21400344403349A42F2D00132042A04F8011F4FEAE8
S2140034541121F6D1EAE701F47042B2F5805F07D194
S214003464C1F30B0404F17E649AB203FB0541D0E772
S21400347401F46042B2F5005FD8D1C1F30B040549EC
S2140034849AB2214403FB0511C3E700BF0E390300BB
S2140034940080E00F00E0070070B5054616461C469F
S2140034A4DBB14BF23463994210D1082C28BF0824B0
S2140034B47F2241F202012346FFF78AFFA2B20749A0
S2140034C42846FDF750FD40B941F2F0112346324636
S2140034D42846BDE87040FFF77BBF70BD0E39030079
S2140034E42DE9F7430446E0070F46154603D5DD21CC
S2140034F43448FFF7EBFAE90703D5DE213148FFF736
S214003504E5FA04F47043B3F5805F3ED1C4F30B04CC
S21400351404F17E646B1E2C4A23449342264603D948
S214003524E3212848FFF7D2FADFF8989006EB05085F
S21400353446453DD1A2070ED04FF6FF7337F8022B4F
S21400354402A943EA0243A01E41F8043D0422FFF701
S21400355415FF0234023DAB070ED0023D25F00103F1
S214003564FB5A02A96FEA03436FEA1343042241F8A5
S214003574043D6019FFF702FF25B12A463946204666
S214003584FFF7FCFE03B0BDE8F08304F46043B3F534
S214003594005F05D10D4BC4F30B041C442646C3E759
S2140035A4EA210848FFF792FA6FF00F060024BBE7FB
S2140035B416F8013BFF2BBBD0F4214846FFF786FAEA
S2140035C4B6E700BF94380300FF1FE00F00E00700D3
S2140035D4FFF78ABE1FB5144A01AB106851681289FA
S2140035E403C31A8001238DF804300D238DF80A30A6
S2140035F403230E4C082123208DF80B3002F0D4FD53
S21400360401A9204603F043FE4FF40061022342F270
S2140036141800074AC2F884112350516041F21C0274
S214003624A35004B010BD00BF163903000080014A41
S21400363400E100E0014803F019BE00BF0080014A23
S214003644A52803D10021024803F001BE704700BF3D
S2140036540080014A024B586800F00100704700BF22
S2140036640080014A024A536A002BFCD1704700BF0F
S2140036740080014A00207047002070477047000011
S21400368407B572B602F039FF894B8A495B69402256
S2140036948B6000230B764B768B76F023CB760B77FA
S2140036A44B778B77CA77802281F8202081F82130E7
S2140036B4E023602081F822307F4B81F8232083F8B2
S2140036C4002383F8012383F8022383F8032383F873
S2140036D4042383F8052383F8062383F8072383F853
S2140036E4082383F8092383F80A2383F80B2383F833
S2140036F40C2383F80D2383F80E2383F80F2383F813
S214003704102383F8112383F8122383F8132383F8F2
S214003714142383F8152383F8162383F8172383F8D2
S214003724182383F8192383F81A2383F81B2383F8B2
S2140037341C2383F81D2383F81E2383F81F2383F892
S214003744202383F82103202083F8222383F82323CD
S21400375483F8242383F8252383F8262383F8272352
S21400376483F8282383F8292383F82A2383F82B0352
S21400377483F82C0383F82D2383F82E2383F82F2332
S21400378483F8302383F8312383F8322383F83323F2
S21400379483F8342383F8352383F8362383F83723D2
S2140037A483F8382383F8392383F83A2383F83B23B2
S2140037B483F83C23CB6823F4E0631B041B0C43F020
S2140037C4BF6343F40133CB604B6943F010034B6192
S2140037D44FF4E0234B6205F093F8FFF72DFBEFF36D
S2140037E408834FF0CD31354A043B93425DD2344AC8
S2140037F4002192B23348FDF7AFFB62B6684603F089
S21400380437FB314B9B6DDB0318D4304A136823F423
S214003814FF0323F4FE4343F4BC1343F4A063136092
S21400382452F8043C23F4704343F4404342F8043C07
S21400383452F8043C43F4E06342F8043C9DF801303B
S214003844012B0FD19DF8003063B94FF000531B686D
S2140038541F4B1B681F4B1B681F4B1B681F4B1B68AB
S2140038641F4B1B681F4AD2F8803043F00303C2F88C
S214003874803002224FF040231A6704F0B7FF01F0AD
S214003884B3FA002300938DF80430012368468DF8BC
S214003894033002F0CEFE00F0F5F817F08BFF124866
S2140038A40FF06AFF03B05DF804FB1960043B9CE765
S2140038B45400000000ED00E000E100E0601100208C
S2140038C48C100000A000002000C0004034C000405F
S2140038D4004000200080002000C0002000000120DE
S2140038E40040012000800040548D030040F2016037
S2140038F417F00EBFFEF7B2BF08B500210B20FEF787
S214003904ABFFBDE80840FEF7AABF032000F046BAA6
S21400391408B5FFF7E1FA044B0B289ABF00B203EB95
S2140039248000184608BD00BF663A030008B5FFF7D6
S214003934D9FA044BC0F30F2253F82230C0B203EB7B
S214003944800008BD303A030007282DE9F84F0446E6
S2140039540F462DD0082808BF022421460120FCF774
S21400396453FEFFF777FE651ED5F1000848EB050801
S21400397400B3012C1ED1A520FFF762FE2646EFF306
S2140039841089012383F31088EFF3118A4FF0000B9C
S2140039948BF31188354D404608F0D2FB631EC5F8FC
S2140039A400B0042B59D8DFE803F00E4D4D515500F6
S2140039B40324D2E7FFF74EFE18B1FFF753FE0026A6
S2140039C4DDE70646DBE72A4A136923F0040313619E
S2140039D430BF284AD2F82434D2F8202413409BB2AD
S2140039E4254A2B60D2F80011480102D51168490116
S2140039F406D4D2F80011880105D51268910102D5C3
S214003A0443F480332B601C4BD3F80021520506D5B3
S214003A141B685B0542BF2B6843F400332B601EB162
S214003A240121164803F013FC404608F0A9FBCFB169
S214003A348AF3118889F310882146BDE8F84F0020E0
S214003A44FCF7E2BD012002F0C7FDC2E7012002F048
S214003A54D7FDBEE702F0D6FDBBE788210848FFF78E
S214003A6435F8B6E787F31088E6E700BF002800209D
S214003A7400ED00E000C0034000E100E00080014AE1
S214003A84963A030042F22041044AD2F820341B0C32
S214003A941B045350024A1360704700BF00C0034023
S214003AA4FC2700200021FFF74FBFFFF7FBBF0000F5
S214003AB42DE9F04F89B00FF05CFE0746002840F071
S214003AC4DD806F4E6F4D3168286817F00BF804469A
S214003AD4002827D033683C46D3E900019A69126867
S214003AE49047336804A89B699B689847336802200C
S214003AF49B69DB689847326805985368E7B2B3FB5E
S214003B04F0F3BB42916904F1010442D8CB6800206B
S214003B14984733689B695B6898473168286816F04D
S214003B24E1FF04460026DFF88891002C53D1564B5B
S214003B344FEA8608F35C002B31D1A246534BF35C64
S214003B440193534B03EB080B019B5FFA8AF7BB42C6
S214003B54286853D84F4BF35C002B3CD04C4B019F4A
S214003B649844FBB27E2B286835D8D8F8003003AAD0
S214003B7407EB030A514602AB17F0EEF948452AD084
S214003B845146286817F02EFA013704460028E8D074
S214003B9421E012680B6907FB00209847ABE73C4B13
S214003BA403AA53F82670286802AB394617F0D4F9EE
S214003BB4484507D078B9039B012B0CD039462868B2
S214003BC417F010FA344B394653F8083028681A6848
S214003BD417F0ECF804460136312EA6D1B4FA84F375
S214003BE42E4A5B0913702E4B9C4241D02DD8002CD4
S214003BF432D0013B9C423FD0C5242DE0DBF8003098
S214003C0403AA1F44394602AB17F0A6F948450AD062
S214003C1410B10AF1010A97E7039B8BB9214B029A6C
S214003C24F35C9A42F5D01F4B1B4A9B5D52F8082062
S214003C343946286817F02CF80028EAD0044689E7A5
S214003C443946286817F0CEF9EDE7174B9C4211D099
S214003C5404339C42D0D1C1242B681B7C23B14FF47F
S214003C6489711248FEF732FF204609B0BDE8F08F8E
S214003C74C324F1E7C424EFE7C224EDE7C624F3E740
S214003C84281E0020241E00209C240300A6230300D4
S214003C9400250300CD240300D823030004280020B5
S214003CA402E000F0C425030004E000F0123B030029
S214003CB40BE000F0302970B506460C4615461AD8B7
S214003CC4144A127822B3144A1068144A52F821107F
S214003CD4134A125D3AB1324617F0B6F8C0B1BDE8E1
S214003CE47040FDF760B87F2D08BF00253246294492
S214003CF417F018F8F2E7FF2903D9BDE87040FFF77C
S214003D04CBBB40F24511BDE870400648FEF7DEBE68
S214003D1470BD00BF04280020241E002000250300D8
S214003D249C240300123B03003028F8B504460D46D5
S214003D34164619D81449097829B31449144F086843
S214003D44144951F824103C5D3CB1126817F02EF863
S214003D54C8B1BDE8F840FDF726B87F2D08BF00259A
S214003D64294416F095FFF3E7FF2805D91A4631468D
S214003D74BDE8F840FFF7B4BB4FF4BC71BDE8F840AB
S214003D840548FEF7A3BEF8BD04280020241E002024
S214003D949C24030000250300123B030008B5084BCF
S214003DA41B7863B1074B002253F82010064B1868A3
S214003DB417F08AF818B1BDE80840FCF7F4BF08BD50
S214003DC40428002000250300241E002070B5164693
S214003DD485180AB9304470BD01F00F030A2B34BFAE
S214003DE430243724013A2344090905F8013DD2B2A8
S214003DF4EFE70000F0B5F9B100281CDA2D23B0F186
S214003E04004F137000D04042012115E0801B86420B
S214003E14ECB205F10105F9D904B927B101274D1C07
S214003E2430345454E9B20133092B09D1303050549C
S214003E340131C8B2F0BD002100231F46DFF808C0D8
S214003E445CF823600025E2E7883B03002DE9F04F89
S214003E544FF0000B95B002AC81468A4617461D46C5
S214003E645E46A0463B7863B902ABE41AE4B2224647
S214003E7419465046C847002840F093803444E0B2C0
S214003E8490E0252B13D0BBF1000F14D1237001341E
S214003E9412AB9C426DD3A4EB0804E4B2224641461E
S214003EA45046C84700287CD12644F6B260E0BBF1F1
S214003EB4000F00D101373B78632B00F092801BD8AB
S214003EC4392B09D8302B80F09E80002BCCD0252BA4
S214003ED451D04FF0000BDBE7582B00F08B80622BA1
S214003EE4F7D14FF0000B2B6801936B680093009B8F
S214003EF49B4543D10835ECE7702B1ED017D8642BAE
S214003F0401D06C2BE5D16C2B05F1040B28686CD121
S214003F147B78752B14BF0121002101D0642B00D1BE
S214003F2401372246FFF766FF04445D46D1E7752B4A
S214003F34E9D0782B5ED0732BCBD1A4EB0804E4B283
S214003F44224602A9504605F1040B2D68C84740BB1B
S214003F542644F6B2C4B22B5D0130002BFAD12246B9
S214003F6429465046C847E0B95D4683462644F6B21D
S214003F744446013776E723700134AAE7019B2046BE
S214003F8413F80B100222FFF721FF12AB98420446E7
S214003F940ED3A0EB0804E4B2224641465046C84776
S214003FA418B1002015B0BDE8F08F26444446F6B29A
S214003FB4009B013B5B4582BF20232370013412AB78
S214003FC49C420BD3A4EB0804E4B222464146504676
S214003FD4C8470028E5D126444446F6B20BF1010B47
S214003FE485E72B6804352370C6E7752B0CBF0021C4
S214003FF4012196E7204602222978FFF7E7FE05F11D
S214004004040B044691E77A7802F0DF02582A19D1A5
S214004014322B07F1010B09D10422204629882F1DD3
S214004024FFF7D4FE3D4604465F4652E7342B09D1DB
S2140040342F1D2D680422290C2046FFF7C7FE0422F4
S214004044A9B2EDE74FF0010B22E70EB403B503AABD
S21400405452F8041B019208F0FFF8C0B202B05DF8F3
S21400406404EB03B0704700000149FFF7EEBF00BF42
S214004074251E03000EB433B505AA52F8041B0546E4
S214004084019208F0E9F804462846FFF7EDFFE0B28F
S21400409402B0BDE8304003B0704708B508F0DCF85D
S2140040A4C0B208BD2DE9F04F9B46584B85B01B782F
S2140040B4064689461546109F9DF844A0DDF85080B4
S2140040C4002B00F09280072A00F291800E9B002BB2
S2140040D400F08D800F9B002B00F08980129BB3F5B7
S2140040E4006F00F38480012801D1002F7FD0484B55
S2140040F403EB05131B7B002B7BD0464C10220021C0
S21400410468462CF00DFD04EB45141022B9F1000F9F
S2140041145CD1494620462CF003FDA37843F01003F7
S214004124A370E37843F03003E370BAF1000F03D1D1
S214004134DBB243F00303E37036496A01129B885AE4
S214004144013B63F30E100E9B01EB020C8852CCF875
S21400415408300F9B9DF84C10CCF804309CF80330C4
S214004164012E61F38303CDF800B08CF8033042D1FE
S21400417413230CF1100ECCF80C309CE80F008EE8DC
S2140041840F006FF00301DCF81C20B9F1010F61F396
S2140041949F02CCF81C20CCF8147004D10F9BCCF8EA
S2140041A40470CCF81830002719492A018B1841F8F6
S2140041B40280159A28465A609F605E7322466946B6
S2140041C402F0D0FC384605B0BDE8F08F002120464A
S2140041D42CF0A6FC1023A3700323E370BAF1000F9F
S2140041E4AAD1DBB243F03003A5E70B48EBE70B4854
S2140041F4E9E70B48E7E7B8F1000FD4D19CF80230A2
S21400420468F304138CF80230CDE700BF8829002039
S2140042140828002088280020028000F0018000F092
S214004224078000F038B5104B05461B78BBB1C0B10B
S21400423402F06BF900230D4901EB0312147B3CB921
S2140042442B6001231460137302F065F9204638BD11
S2140042540133082BF0D102F05EF90548F7E705486C
S214004264F5E70548F3E700BF882900200828002062
S214004274048000F0028000F0018000F038B502F0FF
S21400428444F9002305460A4AD1180C7B5CB910335E
S214004294802BF9D102F018FC064B28461C7002F05D
S2140042A43AF9204638BD284602F035F90248F9E7BF
S2140042B40828002088290020058000F00D4B10B542
S2140042C41B78044693B1072812D802F01EF90A4B4D
S2140042D403EB04131A7B2AB100241C7302F01BF9A7
S2140042E4204610BD02F017F90448FAE70448F8E738
S2140042F40448F6E78829002008280020068000F0F5
S214004304028000F0018000F0164B13B518680023F5
S21400431401908DF8043002F0F8F8134B1C7824B1A1
S21400432402F0F9F8114802B010BD01221A7002F02A
S214004334F2F80F4B1C731C7783F82C4083F83C4030
S21400434483F84C4083F85C4083F86C4083F87C40E8
S21400435404230DEB03008DF8073002F0D9FB20464A
S214004364E1E700BFAC3B030088290020038000F08F
S2140043740828002010B588B00E9C009207940D9C67
S214004384024606949DF8304005940B9C04949DF8D0
S214004394284003940024CDE9013420460B462146E8
S2140043A4FFF780FE08B010BD10B588B00E9C0092D2
S2140043B407940D9C024606949DF8304005940B9C89
S2140043C404949DF8284003940024CDE90134204643
S2140043D40B460121FFF766FE08B010BD08B50A4B70
S2140043E41B785BB107280BD8084B03EB00131B7B29
S2140043F443B1002102F07CFB002008BD0448FCE722
S2140044040448FAE70448F8E788290020082800202A
S214004414028000F0018000F0078000F008B50A4B27
S2140044241B785BB107280BD8084B03EB00131B7BE8
S21400443443B1012102F05CFB002008BD0448FCE700
S2140044440448FAE70448F8E78829002008280020EA
S214004454028000F0018000F0078000F008B50A4BE7
S2140044641B7853B107280AD8084B03EB00131B7BB1
S2140044743BB102F0C7FB002008BD0548FCE7054831
S214004484FAE70548F8E700BF882900200828002036
S214004494028000F0018000F0078000F00D4B1B78CE
S2140044A493B1072812D889B10B4B03EB00131B7B7F
S2140044B473B10A4BDA6A012303FA00F010401ABFFC
S2140044C400200B7008707047054870470548704711
S2140044D4054870478829002008280020000004406A
S2140044E4028000F0018000F0078000F00B4B10B54E
S2140044F41B780C4663B107280CD859B1084B03EB5C
S21400450400131B7B43B102F08FFB2060002010BD1C
S2140045140448FCE70448FAE70448F8E7882900203A
S21400452408280020028000F0018000F0078000F0D8
S2140045342DE9F843174B1F6D5B6D1F4000D5FEE752
S21400454401260025144CDFF85480DFF854903742D7
S21400455417D02368C8F800609BB1A168626801316F
S214004564A16028469847637B012B0AD148B909EB1A
S2140045744513197B1A7F60F3410160F341021973F6
S2140045841A770135082D4FEA460604F11004DED1E9
S214004594BDE8F883000004400828002050200440AA
S2140045A48828002070B504460125084E04B970BD5D
S2140045B494FAA4F0B0FA80F005FA00F324EA0304AF
S2140045C456F82030002BF1D09847EFE78C290020CE
S2140045D44FF00072044BC3F880211A604FF08062DB
S2140045E4C3F880211A60704700E100E038B504463D
S2140045F40D4601F08AFF034B43F82450BDE83840CB
S21400460401F089BF8C290020084BD3F82404D3F882
S2140046142024104042F2204220F42A5020F02A009F
S2140046244004400C9850FFF7BDBF00BF00C00340D5
S214004634084BD3F82404D3F82024104042F2204236
S21400464420F4AA4020F055000004000C9850FFF710
S214004654A9BF00BF00C00340104A30B513684161CB
S2140046641546ABB91060836011E0091B9C68416174
S2140046741A467CB123465C698C42F6D9002CF4D0E9
S21400468452B19060836013B15A69511A596130BDB2
S2140046940022F0E72346F4E72860F3E7E029002049
S2140046A410B500F0B1FA094B094A196831B113681C
S2140046B4C41A4B69A34203D31B1B4B61106003E06F
S2140046C4C01A002310604B6110BD00BFE029002013
S2140046D4D0290020074B10B51B6802205C69064BE6
S2140046E41B681C4400F0C4FA2046BDE8104000F0E5
S2140046F493BA00BFE0290020D029002070B59DF8A9
S2140047041450164605710025049A8560BDF81850A5
S2140047140446C5800260C0E903360D4629B96161C6
S2140047240BB11146984796B1354601F0EEFE0646A3
S214004734FFF7B6FF29462046FFF78EFF054B1B689A
S214004744A34201D1FFF7C6FF304601F0E4FE002085
S21400475470BD00BFE029002000210C4A13687BB11D
S21400476483420AD1836879B18B6083681BB15A6926
S21400477441690A445A610020704719469B68EEE76F
S2140047840028EFD0022070471360EEE7E0290020EF
S21400479470B501F0BAFE114D06462C78CCB9104B14
S2140047A41C60104B1C60104B1C8000F0F3F90120B9
S2140047B400F05EFA00F0AAFA0C4B0246186040F2CB
S2140047C4E73123460A482BF0CFFF0A4B1860012333
S2140047D42B70304601F09FFE002070BDCC290020CF
S2140047E4E0290020D0290020D8290020DC29002038
S2140047F418FCFFFFD42900202DE9F0410546F8B146
S21400480401F083FE0F4F0646FFF74AFF2846D7F807
S2140048140080FFF7A1FF044628B1304601F07BFE76
S2140048242046BDE8F081A8453B6803D123B1FFF7D5
S21400483451FFF2E7002BF0D1022000F025FAECE756
S2140048442224EDE7E0290020F0B50D4685B0164693
S2140048541F46044680B1FFF7CFFFBDF82C30002278
S21400486402939DF828302946CDE900732046334646
S214004874FFF744FF05B0F0BD2220FBE738B50C4631
S214004884054698B191B100230B7001F03EFE01215C
S214004894074B1B680BB122781AB101F03CFE0020CE
S2140048A438BD9D420CBF21709B68F3E72220F7E7D2
S2140048B4E0290020F0B51F46002387B00D461646B3
S2140048C48DF817300446A0B10DF11701FFF7D6FF97
S2140048D49DF817207AB9BDF83430294602939DF81E
S2140048E430302046CDE900733346FFF707FF07B0A4
S2140048F4F0BD2220FBE70320F9E70000F8B50C46DC
S2140049040646C8B1C1B101F000FE0546FFF7C8FE71
S21400491473692360134B1B68B3420FD023B9284630
S21400492401F0F9FD03201CE0596922689B680A44DB
S2140049342260F1E700230FE0222012E0276800F04F
S21400494463F9094E3368C01A8742F3D900F05CF95C
S2140049543368C01A23681B1A2846236001F0DBFD5F
S2140049640020F8BDE0290020D029002070B501F011
S214004974CCFD064600F048F9094B05461C88012084
S214004984A4B200F099F918B100F03EF905460134D6
S214004994304601F0C0FD0022214642EA050070BD03
S2140049A4D82900200A4B10B51B680C4683420CD34A
S2140049B4084B4FF47A7219680023A0FB01012BF010
S2140049C4D3FE01302060002010BD2120FCE700BF8C
S2140049D4D4290020DC290020104B10B51A684FF4A7
S2140049E47A73A0FB0301A2B1531E134211D1B2FA8B
S2140049F482F2C2F11F02C2F12004A2F1200301FADE
S214004A0404F420FA02F2224321FA03F342EA0300F2
S214004A1410BD00232BF0A8FEFAE700BFDC29002017
S214004A2400000000F8B516461BA3D3E900238B420A
S214004A3408BF82422AD3174B1A684FF47A73A0FB36
S214004A44034503FB0155C2B1531E13EA020014D1F9
S214004A54B2FA82F2C2F11F02C2F12007A2F12001CB
S214004A6424FA02F305FA07F73B4325FA01F10B4350
S214004A7425FA02F2C6E90032F8BD0023204629468C
S214004A842BF072FEC6E900010020F5E72120F3E7CB
S214004A94AFF30080DC290020EFA7C64B378941001E
S214004AA4C2072DE9F84F04460BD5374A138801335D
S214004AB49BB21380FFF7F4FD344B1B680BB1FFF772
S214004AC409FEA3075DD500F09FF8314E074635680A
S214004AD44FF0000A451B01F018FD8046DFF8AC9045
S214004AE4D9F80040002C48D06369AB4209D95D1B55
S214004AF465613760FFF7EEFD4046BDE8F84F01F00C
S214004B040ABD23462A4637605969914209D818795E
S214004B1494F804C0521A844588BF1C469B68002B30
S214004B24F2D1404601F0F7FCD4F81480C4F814A07F
S214004B3401F0EBFC83462046FFF70EFE584601F0D4
S214004B44EAFC23694BB101F0E0FC83462169204668
S214004B54FFF782FD584601F0DEFCE36813B12168D6
S214004B642046984700F050F84744ED1B0446054499
S214004B7401F0CBFC27468046B2E7022000F084F81A
S214004B84BAE7BDE8F88F00BFD8290020E029002046
S214004B94D02900201FB50024184B18689A88029064
S214004BA453F8060FADF80C201B79009002A88DF878
S214004BB404308DF808408DF80C4002F0BFF86946C2
S214004BC401208DF8004002F07DF84FF090431F213D
S214004BD49A6922F01F029A61094A11609A6A12F0D1
S214004BE40802FBD11A62012002F086F84FF48062B4
S214004BF4044BC3F880211A6004B010BDB03B030018
S214004C041420004800E100E04FF090439A6A12072F
S214004C14FCD4186A704700004FF09042936A190754
S214004C24FCD4136A116C5269120704D4CA1A022AF5
S214004C3401D899420ED1C21A012A98BF981CB0F125
S214004C44FF3F28BF01304FF0904318649A6942F042
S214004C5408029A61054A13783BB14FF09041CB6B3A
S214004C6443F00203CB63002313707047E01D00205B
S214004C7482074FF0904200F00103916948BF43F069
S214004C8408030B4393617047830700F001020AD5BB
S214004C940121084B42F0080219704FF09041CB6B8B
S214004CA423F00303CB634FF090418B6923EA02039E
S214004CB48B617047E01D00204FF0904301285B692C
S214004CC404D0022805D1C3F3C000704703F00100E6
S214004CD4704700207047000010B501F016FC4FF036
S214004CE4904304465B691A07074A03F0010003F081
S214004CF40D0348BF40F002001360FFF7D1FE2046C4
S214004D04BDE8104001F007BC142000481B2001F049
S214004D140DB90000002211462D48F0B503682D4D4C
S214004D2454592CB11E68AC18002E3DD123460121DF
S214004D340832282AF4D101B1036000221446264919
S214004D44264E0B6895592DB11F68B518002F32D121
S214004D542B4601240832282AF4D104B10B600068DB
S214004D640368002B2FD04FF04022936F007923F076
S214004D74FF7323F4803343EA00439367184B4FF0E2
S214004D84004209681A600B68FBB14FF04022936F2B
S214004D94097923F4FF7323F001030B439367104B45
S214004DA44FF080421A60F0BD1E792779B74284BF5F
S214004DB423460121BCE71F7995F804C0BC453CBFD7
S214004DC42B460124C6E7074BD9E7064BE8E700BFA6
S214004DD4E8290020F8290020EC290020202A0020B9
S214004DE4685000406860004010B5012228240F4B2C
S214004DF400211A700E4822462BF092FE224600210D
S214004E040C482BF08DFE0C4B0C4A13600C4A1360B6
S214004E144FF040430B4A1360536020220A4BC3F8FA
S214004E2480211A60FFF776FF002010BDE4290020D9
S214004E34F8290020202A0020F0290020E829002054
S214004E44EC2900206460004000E100E04FF04022BE
S214004E54D2F88800D2F88830C0F38800C3F38803F9
S214004E649842F5D16FF48873184440B27047000036
S214004E744FF04022936E526E10B5134013F08042EA
S214004E8411D0114B1B681C682CB1002119605960A5
S214004E94FFF7DCFFA0474FF080420C4B1A60BDE8DA
S214004EA41040FFF737BF002BF9DA094B1B681C6864
S214004EB42CB11A605A60FFF7C9FF0121A047034BC3
S214004EC44FF00042EAE700BFEC290020646000408F
S214004ED4E8290020FFF7CCBF012203685A619A69CB
S214004EE4D207FCD541F2AC52042103795B0103F1ED
S214004EF4804303F5703399507047000038B141B1D0
S214004F04013AB2F5006F044838BF002070470348E2
S214004F1470470148704700BF037000F0027000F04D
S214004F2438B504460D4601F0F0FAA28892B222B9CA
S214004F342A6001F0F0FA064838BD1422638802FBA2
S214004F44034308332B6001F0E6FA0020F4E700BFC1
S214004F540B7000F038B504460D4601F0D6FAA38867
S214004F649BB223B92B6001F0D6FA0C4838BD142244
S214004F746388E18802FB034308332B6063885A1C6A
S214004F8492FBF1F301FB13239BB26380A388013BDE
S214004F949BB2A38001F0BFFA0020E7E70B7000F095
S214004FA490F83130022B0BD13022437F90F8210049
S214004FB45A43044B9B5823FA00F000F00100704754
S214004FC40020704714C00340002313B51C4A52F84F
S214004FD4234094F8211081420ED00133042BF6D1DD
S214004FE402B010BD0028FBD19DF80730002BF7D087
S214004FF4A068FFF7F3F9F3E794F83130022BEFD10A
S2140050042046FFF7CDFF637E2076022BE8D194F886
S2140050142E3003F0FF02002BE2D102A901F8012D85
S214005024A068FFF73BFA237E1BB194F82F30002BC1
S214005034D8D00023A06884F82F30FFF7EFF9CFE725
S214005044482A0020012230B590F8324087B080F814
S2140050542C207CB9094D0368CDE9024504904C68C0
S2140050642433CDE900240A684169C068FFF79CF937
S21400507407B030BD002380F82C30F9E7355900001E
S214005084012330B590F8324087B080F82D307CB9D3
S214005094094D0268CDE9024504904C683C32CDE9DE
S2140050A400340B6801698068FFF764F907B030BD07
S2140050B4002380F82D30F9E7C1500000F7B5906A58
S2140050C401A91446FFF72CFF144B984220D0002564
S2140050D4019B1D619D6001F018FA019A0746D66887
S2140050E426B1D2E9002329462046B04701A9A06A82
S2140050F4FFF730FFA06A83889BB263B101A9FFF76C
S2140051040FFF01992046FFF7BBFF384601F003FA6C
S214005114012003B0F0BD84F82D30F6E70B7000F0E4
S214005124F8B5044617460D4601F0EFF9A388E28861
S21400513406469A4205D800233B6001F0ECF916486F
S214005144F8BD1422238805F1100C02FB0343083330
S2140051542A4603CA624518605960154603F10803D7
S214005164F6D11068142218602388E18802FB0343F2
S21400517408333B60238830465A1C92FBF1F301FB4C
S21400518413239BB22380A38801339BB2A38001F030
S214005194C2F90020D4E700BF0A7000F02DE9F341FD
S2140051A40D460446002800F0868001F0AEF9012D75
S2140051B4064637D1A36A9B889BB2002B39D0A068D9
S2140051C4FFF74CF90023A06A84F82D3083889BB23D
S2140051D4002B34D1226893699B04FCD5023D012D33
S2140051E41BD8E068FFF73AF90023606A84F82C308D
S2140051F483889BB2002B41D194F83130032B0CD01A
S21400520442F2AC52042123795B0103F1804303F597
S21400521470339950022223685A61304601F07BF9B4
S214005224002009E0022D48D1636A9B889BB2002BBC
S214005234D4D101F070F9264802B0BDE8F08101A986
S214005244FFF76EFE0199A0680831FFF74FF9214F6A
S214005254019B1F61A06A83889BB2002BBAD001A968
S214005264FFF778FE019BD3F80C80B8F1000FF1D05D
S2140052749B68002239462046C047EBE76946FFF79D
S2140052844FFE0099E0680831FFF730F9114F009B94
S2140052941F61606A83889BB2002BADD06946FFF716
S2140052A459FE009BDD68002DF3D09B68002239462A
S2140052B42046A847EDE70848BEE7032D8ED1A36A2B
S2140052C49B889BB2002B7FF47AAF636A73E700BFB8
S2140052D4087000F0097000F0027000F00368986926
S2140052E47047436A9888C0B270472DE9F3419846E0
S2140052F400230546406A0E4684881746A4B2CDE9C4
S21400530400333CB16946FFF70BFE01A90446E86882
S214005314FFF7ECF8009969B164B94868019BC01AB4
S2140053243860C8F800300B6833602B68986902B0A0
S214005334BDE8F0810021C8F8001039603160F4E758
S214005344836A9888C0B270472DE9F34198460023D3
S2140053540546806A0E4684881746A4B2CDE9003313
S2140053643CB16946FFF7DCFD01A90446A868FFF7CF
S214005374BDF8009969B164B94868019BC01A3860E1
S214005384C8F800300B6833602B68986902B0BDE833
S214005394F0810021C8F8001039603160F4E7007E1F
S2140053A470472DE9F04104460F469046FFF7A6FDE8
S2140053B40546002839D1152001F0CCF80646A26A25
S2140053C493889BB213B194F82E308BB323689E69EE
S2140053D416F002060ED104225A619A699207FCD589
S2140053E441F2AC52102123795B0103F1804303F5AB
S2140053F470339950012384F8303094F8323033B93E
S214005404B8444745206818D183699B06FCD566B91D
S21400541442F2AC52102123795B0103F1804303F579
S21400542470339950082223685A612846BDE8F081F3
S214005434002EC5D0FFF77CF8C1E717F8011B01F072
S21400544401FFDEE710B5044680B190F82E302BB984
S214005454FFF7A6FD10B9A068FEF7C0FF002094F879
S2140054642E300133DBB284F82E3010BD0048FCE742
S214005474027000F010B50446A0B190F82E309BB12F
S21400548490F82E30012B05D1FFF78AFD10B9A068DD
S214005494FEF7C4FF002094F82E30013BDBB284F8FC
S2140054A42E3010BD0148FCE70148FAE7027000F010
S2140054B4057000F037B590F831500446022D1ED121
S2140054C4012190F82220457E837F01FA02F23020E3
S2140054D4154925B900FB031342F2100105E0012D1E
S2140054E407D100FB031341F210015A50002003B009
S2140054F430BD247E00FB0313002CF4D1ECE7012D11
S214005504F4D1037E73B911238DF80730FFF79AFFA1
S2140055142A460DF107012046FFF743FF2046FFF712
S214005524A9FFE3E71323EFE700C00340F0B5044602
S2140055348BB09E4F03AE0D460FCF0FC697E80700FD
S21400554486E807001CB99A4C20460BB0F0BD0DB98E
S214005554984CF9E73822002120462BF0E1FA9649C8
S214005564964A0B78002B40F0D3800120C2E9003322
S214005574C2E90233087042F823402B7D286884F879
S21400558431300023206084F832302B7B23718C4B1F
S214005594984240F0CA80202384F82330894B236144
S2140055A44FF4802300266361D5E9072362621680E0
S2140055B45680968084F82C60A3621E805E809E804F
S2140055C46B6803A90593EB8984F82D60ADF81C304D
S2140055D42B8A84F82F60ADF81A30AB7C8DF80C60FB
S2140055E48DF81830EB7C8DF81E3005238DF81930B5
S2140055F401F0AAFD14212A7B734B287A03EB421789
S214005604C7F8AC15A97A2E3240EA014C03EB4213D4
S214005614C3F804C06A7AEB7A42EA034CC7F8BCC5FE
S214005624E17784F820306B7DE07622776377AB7D74
S214005634042284F82130EB7DA3772B7E84F8223075
S214005644012301F045F80123022294F82010207F5C
S21400565401F03EF894F83130022B7DD13346012216
S21400566494F82110607F01F033F83346042294F84E
S2140056742210A07F01F02CF8012394F82120607FEB
S2140056841146CDE9003300F0DDFF00F03EFF2E7D2D
S2140056940746032E71D141F2AC5202212B7B042023
S2140056A45B0103F1804303F57033995041F25C02C9
S2140056B429688850297EEA7D42EA014241F2B851BF
S2140056C45A50A97D6A7D42EA014241F2B4515A50C9
S2140056D44FF0FF3242F248032868C2502B7D032B5A
S2140056E40CBF0521042101F0E9FC4FF440622B684D
S2140056F45A61FEF709FE002104F10800FEF792FD48
S214005704014600284AD0314C384600F004FF1BE717
S214005714002352F8231000293FF42DAF8C423FF4A7
S2140057242AAF0133042BF4D10DE7294B984207D155
S214005734212384F82330274B23614FF4A02331E739
S214005744254B98427FF404AF222384F82330234B5E
S21400575423614FF4C02325E7032B96D1334694F8F0
S2140057642110607F012200F0B3FF3346042294F830
S2140057742210A07F00F0ACFF87E7022EA8D194F891
S21400578421001749FEF732FFFEF722FF0023667654
S214005794A37623762046FFF78DFE99E704F10C00E6
S2140057A4FEF740FD04460028AED0ACE7BC3B030041
S2140057B4027000F0037000F0582A0020482A0020E7
S2140057C4008005400200040000C003400E7000F094
S2140057D400C0054002000500000006400200060066
S2140057E4CD4F000090F83130032B05D002294176C6
S2140057F418BF0176FFF75EBE00487047057000F0DC
S21400580413B50446002862D00321FFF7C7FC002125
S2140058142046FFF7E7FF0023E17F1A46E07E00F00C
S21400582457FF002394F820101A46207F00F050FFFC
S21400583494F83130022B39D1002394F821101A46FB
S214005844607F00F045FF002394F822101A46A07FDC
S21400585400F03EFF0021012394F82120607FCDE96B
S2140058640031114600F0EEFE94F8323013B90A22E5
S21400587423685A6194F83130032B04D0002194F83D
S2140058842100FEF7B3FEA068FEF718FDE068FEF7F9
S21400589415FDFEF7F3FC0020636A18805880988094
S2140058A4A36A18805880988002B010BD032BDBD101
S2140058B4002394F821101A46607F00F009FF0023A5
S2140058C494F822101A46A07F00F002FFCCE70148A5
S2140058D4EAE700BF027000F0F0B587B0044616464B
S2140058E4FFF70CFB0546E8B90493104BCDE9011607
S2140058F46A4601A9606A03960593FFF711FC0546FC
S21400590480B994F82C306BB92046FFF7E5FA009975
S214005914FFF798FB94F83130032B03D02576204606
S214005924FFF7C8FD284607B0F0BD00BF017000F0C1
S21400593473B5506A01A91446FFF7F2FA2F4B984242
S21400594430D094F83200019B002839D12268916C3B
S21400595411F4007129D02A499860196142F248036B
S2140059644FF40071D15000F0D0FD01990646CD6881
S21400597435B14A688B682046D31A0A680969A8476D
S21400598401A9606AFFF7E6FA606A8588ADB2DDB100
S21400599401A9FFF7C5FA01992046FFF753FB3046E5
S2140059A400F0B9FD012002B070BD906CC00507D5AB
